:1000000012C02CC05BC22AC029C028C027C026C08D
:1000100025C0E3C223C022C021C020C01FC01EC013
:100020001DC01CC01BC011241FBECFE5D4E0DEBF25
:10003000CDBF11E0A0E6B0E0E4E9F7E002C0059032
:100040000D92A437B107D9F721E0A4E7B1E001C0D0
:100050001D92AA37B207E1F727D09AC3D1CFCF9329
:10006000DF93CDB7DEB787E290E027E230E0F90119
:1000700020812064FC01208386E290E026E230E0CB
:10008000F90120812068FC01208386E290E026E2CD
:1000900030E0F90120812560FC01208380E690E0BA
:1000A000F3D2DF91CF910895CF93DF93CDB7DEB731
:1000B000A6D2ECD0A2D0D3DF74D20BD08BD181E00A
:1000C00013D181E060D183E790E0DED278942ED224
:1000D000FECFCF93DF93CDB7DEB784E390E024E388
:1000E00030E0F9012081277FFC01208384E390E048
:1000F00024E330E0F90120812B7FFC01208387E895
:1001000090E0C2D289E990E0BFD2DF91CF9108950B
:10011000CF93DF9300D0CDB7DEB78A83198203C0B7
:1001200089818F5F898389818F3FD1F78A81882375
:1001300029F587E290E027E230E0F9012081216093
:10014000FC01208387E290E027E230E0F901208182
:100150002260FC01208387E290E027E230E0F90191
:1001600020812B7FFC01208387E290E027E230E0B2
:10017000F9012081277FFC0120832BC08A818130F7
:1001800029F587E290E027E230E0F90120812E7F17
:10019000FC01208387E290E027E230E0F901208132
:1001A0002260FC01208387E290E027E230E0F90141
:1001B00020812B7FFC01208387E290E027E230E062
:1001C000F9012081277FFC01208303C08CE990E0A6
:1001D0005BD286E290E026E230E0F90120812064E3
:1001E000FC012083000084E290E0FC018081918189
:1001F0000F900F90DF91CF910895CF93DF93CDB7FC
:10020000DEB781E390E021E330E0F9012081206353
:10021000FC01208387E390E027E330E0F9012081AF
:100220002063FC01208387E390E027E330E0F901BD
:1002300020812660FC01208382E390E022E330E00D
:10024000F90120812063FC01208388E390E028E30A
:1002500030E0F90120812063FC0120838FE490E0ED
:100260002FE430E0F9012081216AFC0120838EE433
:1002700090E02EE430E0F90120812260FC0120832F
:1002800086EC90E001D2DF91CF910895CF93DF9378
:10029000CDB7DEB781E390E021E330E0F9012081C2
:1002A0002068FC01208381E390E021E330E0F90144
:1002B00020812460FC01208387E390E027E330E085
:1002C000F90120812160FC01208381E390E021E39A
:1002D00030E0F90120812064FC0120838BED90E067
:1002E000D3D1DF91CF910895CF93DF931F92CDB7F4
:1002F000DEB789838981813099F488E390E028E32F
:1003000030E0F90120812160FC01208382E390E04C
:1003100022E330E0F90120812B7FFC0120832FC0F4
:100320008981823099F488E390E028E330E0F90194
:1003300020812E7FFC01208382E390E022E330E0E5
:10034000F90120812460FC01208319C08981833058
:1003500099F488E390E028E330E0F90120812160FE
:10036000FC01208382E390E022E330E0F901208168
:100370002460FC01208303C08EEE90E085D10F90B5
:10038000DF91CF910895CF93DF931F92CDB7DEB762
:1003900089838981813051F482E390E022E330E067
:1003A000F90120812064FC01208310C08981882309
:1003B00051F482E390E022E330E0F90120812F7BC9
:1003C000FC01208303C08FE091E05ED10F90DF91AC
:1003D000CF910895CF93DF93CDB7DEB784E390E05C
:1003E00024E330E0F90120812F7EFC01208384E3A7
:1003F00090E024E330E0F9012081277FFC01208395
:1004000085E590E025E530E0F90120812860FC01D8
:10041000208385E590E025E530E0F90120812B7F00
:10042000FC0120838BE590E02BE530E0F901208191
:100430002068FC0120838EE291E026D182E491E0E5
:1004400023D1DF91CF910895CF93DF93CDB7DEB75E
:1004500087E290E027E230E0F90120812E7FFC0165
:10046000208387E290E027E230E0F90120812D7FB0
:10047000FC01208387E290E027E230E0F90120814F
:100480002460FC01208387E290E027E230E0F9015C
:100490002081277FFC01208386E290E026E230E085
:1004A000F90120812064FC012083000084E290E0B7
:1004B000FC0180819181DF91CF9108951F920F926D
:1004C00000905F000F9211242F933F934F935F93FF
:1004D0006F937F938F939F93AF93BF93EF93FF930C
:1004E000CF93DF9300D0CDB7DEB71A821982ACDF8D
:1004F0009A83898389819A81E7D082E491E0C4D08C
:100500000F900F90DF91CF91FF91EF91BF91AF913D
:100510009F918F917F916F915F914F913F912F911B
:100520000F9000925F000F901F901895CF93DF936C
:10053000CDB7DEB781E0ECDD90937901809378014F
:1005400080E0E6DD9093770180937601209176013B
:10055000309177018091780190917901A901481B30
:10056000590BCA01909375018093740180917601B3
:1005700090917701A9D085E491E086D080917801AF
:1005800090917901A1D085E491E07ED080917401B1
:100590009091750199D087E491E076D0DF91CF9169
:1005A0000895CF93DF93CDB7DEB783E590E023E5E1
:1005B00030E0F90120812560FC01208389E590E08D
:1005C00029E530E0F90120812160FC0120838AE4E3
:1005D00091E05AD0DF91CF9108951F920F92009031
:1005E0005F000F921124CF93DF93CDB7DEB7DF9179
:1005F000CF910F9000925F000F901F901895CF93AE
:10060000DF931F92CDB7DEB78FEC898380E490E053
:100610002981222F30E0232F330F330BFC0120835D
:1006200089E290E02981FC0120838AE290E02AE2BD
:1006300030E0F90120812860FC01208380E490E013
:1006400026E8FC0120838FE591E01ED00F90DF911A
:10065000CF910895CF93DF931F92CDB7DEB78983F3
:1006600000008BE290E0FC018081882F90E0807296
:1006700099270097B1F38CE290E02981FC01208357
:100680000F90DF91CF910895CF93DF9300D0CDB736
:10069000DEB79A83898389819A81FC018081DADFC0
:1006A00089819A81FC01808121E0882309F420E07E
:1006B00089819A8101969A838983222361F70F9019
:1006C0000F90DF91CF910895CF93DF93CDB7DEB731
:1006D00028970FB6F894DEBF0FBECDBF98878F83E3
:1006E0008F8198854AE050E09E012F5F3F4FB9010E
:1006F0000CD0CE010196C8DF28960FB6F894DEBF65
:100700000FBECDBFDF91CF910895FB019F01E8940B
:100710004230BCF04532ACF44A3029F497FB1EF469
:10072000909581959F4F642F77271ED0805D8A33E7
:100730000CF0895D8193CB010097A9F716F45DE277
:1007400051931082C90100C0DC01FC01672F719137
:100750007723E1F7329704C07C916D9370836291A7
:10076000AE17BF07C8F30895AA1BBB1B51E107C012
:10077000AA1FBB1FA617B70710F0A61BB70B881F31
:10078000991F5A95A9F780959095BC01CD010895C0
:04079000F894FFCF0B
:1007940041444320696E697420646F6E652E2E2E69
:1007A4000D0A00616C6C20696E69747320646F6E4D
:1007B400652E2E2E0D0A006C696E6520696E6974B3
:1007C40020646F6E652E2E2E000D0A006B65696E17
:1007D4002067FC6C746967657220414443204B6157
:1007E4006E616C20696E206765745F6C696E655F0D
:1007F4006164632829006D6F746F7220696E697477
:1008040020646F6E652E2E2E0D0A006C65642069BF
:100814006E697420646F6E652E2E2E0D0A0066615B
:100824006C736368652045696E6761626520626503
:1008340069207374617475735F6C6564282900663C
:10084400616C736368652045696E676162652062E7
:100854006569206C696E655F6C656428290073772F
:100864006974636820696E697420646F6E652E2EE6
:100874002E000D0A003B000D0A0074696D6572209C
:10088400696E697420646F6E652E2E2E0D0A0075D4
:1008940061727420696E697420646F6E652E2E2EE9
:0408A4000D0A000039
:00000001FF
