S00D0000417375726F2E737265630D
S113000012C02CC02BC02AC029C028C027C026C0BB
S113001025C0BBC223C022C021C020C01FC01EC037
S11300201DC01CC01BC011241FBECFE5D4E0DEBF21
S1130030CDBF11E0A0E6B0E0EEE4F7E002C0059029
S11300400D92A231B107D9F721E0A2E1B1E001C0DC
S11300501D92A431B207E1F702D077C3D1CFCF9379
S1130060DF93CDB7DEB7A8D279D10DD0E1D071D26C
S113007081E099D180E690E0E4D2789461E080E078
S11300804BD0DCD1FECFCF93DF93CDB7DEB781E386
S113009090E021E330E0F90120812063FC0120831A
S11300A087E390E027E330E0F90120812063FC013D
S11300B0208387E390E027E330E0F9012081266084
S11300C0FC01208382E390E022E330E0F901208107
S11300D02063FC01208388E390E028E330E0F90109
S11300E020812063FC0120838FE490E02FE430E042
S11300F0F9012081216AFC0120838EE490E02EE442
S113010030E0F90120812260FC01208384E790E043
S113011098D2DF91CF910895CF93DF9300D0CDB7DC
S1130120DEB789836A838981813099F482E390E020
S113013022E330E0F90120812062FC01208382E384
S113014090E022E330E0F90120812F7EFC0120833E
S11301501FC08981823099F482E390E022E330E089
S1130160F90120812F7DFC01208382E390E022E3CA
S113017030E0F90120812061FC01208309C082E381
S113018090E022E330E0F90120812063FC01208328
S11301908A81813099F488E390E028E330E0F90122
S11301A020812062FC01208388E390E028E330E092
S11301B0F90120812F7EFC0120831FC08A818230B7
S11301C099F488E390E028E330E0F90120812F7D61
S11301D0FC01208388E390E028E330E0F9012081EA
S11301E02061FC01208309C088E390E028E330E02B
S11301F0F90120812063FC0120830F900F90DF918F
S1130200CF910895CF93DF9300D0CDB7DEB7898324
S11302106A838AE490E02981FC01208388E490E0E9
S11302202A81FC0120830F900F90DF91CF910895D4
S1130230CF93DF93CDB7DEB787E290E027E230E0DB
S1130240F90120812064FC01208386E290E026E20B
S113025030E0F90120812068FC01208386E290E0EF
S113026026E230E0F90120812560FC01208389E841
S113027090E0E7D1DF91CF910895CF93DF931F9260
S1130280CDB7DEB7898382E390E022E330E0F90161
S113029020812068FC01208386E290E026E230E0A1
S11302A0F90120812064FC0120838981813029F5B2
S11302B087E290E027E230E0F90120812E7FFC0103
S11302C0208387E290E027E230E0F90120812D7F4E
S11302D0FC01208387E290E027E230E0F9012081ED
S11302E02B7FFC01208387E290E027E230E0F901D4
S11302F02081277FFC01208327C08981882321F561
S113030087E290E027E230E0F90120812160FC01DE
S1130310208387E290E027E230E0F90120812D7FFD
S1130320FC01208387E290E027E230E0F90120819C
S11303302B7FFC01208387E290E027E230E0F90183
S11303402081277FFC012083000084E290E0FC01EF
S1130350808191810F90DF91CF910895CF93DF93A6
S1130360CDB7DEB781E390E021E330E0F9012081ED
S11303702068FC01208381E390E021E330E0F9016F
S113038020812460FC01208387E390E027E330E0B0
S1130390F90120812160FC01208382EA90E051D19F
S11303A0DF91CF910895CF93DF931F92CDB7DEB73E
S11303B089838981813099F488E390E028E330E0EF
S11303C0F90120812160FC01208382E390E022E393
S11303D030E0F90120812B7FFC0120832BC089812F
S11303E0823099F488E390E028E330E0F901208139
S11303F02E7FFC01208382E390E022E330E0F901C8
S113040020812460FC01208315C08981833091F40C
S113041088E390E028E330E0F90120812160FC01C9
S1130420208382E390E022E330E0F901208124601C
S1130430FC0120830F90DF91CF910895CF93DF9338
S1130440CDB7DEB780911201882F90E084369105F4
S1130450A9F18536910534F4009781F08233910532
S1130460E9F069C0883C910509F448C08A3F9105C8
S113047009F454C08639910589F15DC065E580E0D1
S1130480C1DE85EB90E0DDD085EB90E0DAD088EB3F
S113049090E0D7D085EB90E0D4D04DC064E680E006
S11304A0B1DE85EB90E0CDD085EB90E0CAD08FEB48
S11304B090E0C7D085EB90E0C4D03DC066E980E011
S11304C0A1DE85EB90E0BDD085EB90E0BAD087EC5F
S11304D090E0B7D085EB90E0B4D02DC068EC80E01C
S11304E091DE85EB90E0ADD085EB90E0AAD08FEC67
S11304F090E0A7D085EB90E0A4D01DC06FEF80E022
S113050081DE85EB90E09DD085EB90E09AD087ED7D
S113051090E097D085EB90E094D00DC085EB90E00F
S113052090D08FED90E08DD085EB90E08AD085EB74
S113053090E087D00000809112018F5F80931201B8
S113054081E09BDE9ED087EE90E07BD0DF91CF915F
S11305500895CF93DF93CDB7DEB783E590E023E52D
S113056030E0F90120812560FC01208389E590E0D9
S113057029E530E0F90120812160FC01208389EE26
S113058090E05FD0DF91CF9108951F920F92009079
S11305905F000F9211248F93CF93DF93CDB7DEB713
S11305A081E080931301DF91CF918F910F9000929E
S11305B05F000F901F901895CF93DF931F92CDB7D4
S11305C0DEB78FEC898380E490E02981222F30E02C
S11305D0232F330F330BFC01208389E290E0298120
S11305E0FC0120838AE290E02AE230E0F9012081D4
S11305F02860FC01208380E490E026E8FC0120834D
S11306008EEF90E01ED00F90DF91CF910895CF939D
S1130610DF931F92CDB7DEB7898300008BE290E0B1
S1130620FC018081882F90E0807299270097B1F3B4
S11306308CE290E02981FC0120830F90DF91CF911F
S11306400895CF93DF9300D0CDB7DEB79A83898323
S113065089819A81FC018081DADF89819A81FC0198
S1130660808121E0882309F420E089819A81019620
S11306709A838983222361F70F900F90DF91CF91A2
S11306800895CF93DF93CDB7DEB728970FB6F894CC
S1130690DEBF0FBECDBF98878F838F8198854AE0D8
S11306A050E09E012F5F3F4FB9010CD0CE0101965F
S11306B0C8DF28960FB6F894DEBF0FBECDBFDF911A
S11306C0CF910895FB019F01E8944230BCF045327C
S11306D0ACF44A3029F497FB1EF4909581959F4F12
S11306E0642F77271ED0805D8A330CF0895D819357
S11306F0CB010097A9F716F45DE251931082C9016A
S113070000C0DC01FC01672F71917723E1F7329778
S113071004C07C916D9370836291AE17BF07C8F3D8
S11307200895AA1BBB1B51E107C0AA1FBB1FA61734
S1130730B70710F0A61BB70B881F991F5A95A9F786
S111074080959095BC01CD010895F894FFCFEB
S113074E616C6C20696E69747320646F6E652E2EF5
S113075E2E0D0A006D6F746F7220696E69742064B9
S113076E6F6E652E2E2E0D0A006F646F6D6574729A
S113077E696520696E697420646F6E652E2E2E0D68
S113078E0A006C656420696E697420646F6E652E50
S113079E2E2E0D0A000D0A0050574D2038350050EC
S11307AE574D203130300050574D203135300050E8
S11307BE574D203230300050574D203235350064BD
S11307CE6F6E652E2E2E003B0074696D6572206966
S11307DE6E697420646F6E652E2E2E0D0A0075617F
S11307EE727420696E697420646F6E652E2E2E0DE0
S10507FE0A00EB
S9030000FC
