:1000000012C02CC03FC32AC029C028C027C026C0A8
:1000100025C08FC323C022C021C020C01FC01EC066
:100020001DC01CC01BC011241FBECFE5D4E0DEBF25
:10003000CDBF11E0A0E6B0E0ECEEF8E002C0059024
:100040000D92A038B107D9F721E0A0E8B1E001C0D6
:100050001D92A238B207E1F736D046C4D1CFCF9374
:10006000DF93CDB7DEB787E290E027E230E0F90119
:1000700020812064FC01208386E290E026E230E0CB
:10008000F90120812068FC01208386E290E026E2CD
:1000900030E0F90120812560FC01208386E290E0B8
:1000A00026E230E0F90120812064FC012083000079
:1000B00084E290E0FC018081918182E690E090D31F
:1000C000DF91CF910895CF93DF93CDB7DEB743D3C0
:1000D000C1D101D1C4DF11D30ED060D281E0E8D10B
:1000E00081E035D285E790E07BD3789461E081E0D0
:1000F0003BD195D0FECFCF93DF93CDB7DEB784E36E
:1001000090E024E330E0F9012081277FFC01208387
:1001100084E390E024E330E0F90120812B7FFC01AF
:10012000208389E890E05CD38BE990E059D3DF919C
:10013000CF910895CF93DF9300D0CDB7DEB78A83F8
:10014000198203C089818F5F898389818F3FD1F7AD
:100150008A81882329F587E290E027E230E0F901DF
:1001600020812160FC01208387E290E027E230E0DB
:10017000F90120812260FC01208387E290E027E2E0
:1001800030E0F90120812B7FFC01208387E290E0A1
:1001900027E230E0F9012081277FFC0120832BC07A
:1001A0008A81813029F587E290E027E230E0F90189
:1001B00020812E7FFC01208387E290E027E230E05F
:1001C000F90120812260FC01208387E290E027E290
:1001D00030E0F90120812B7FFC01208387E290E051
:1001E00027E230E0F9012081277FFC01208303C052
:1001F0008EE990E0F5D286E290E026E230E0F90167
:1002000020812064FC012083000084E290E0FC0156
:10021000808191810F900F90DF91CF9108950F937E
:100220001F93CF93DF93CDB7DEB780E083DF8C01E0
:1002300081E080DF9801281B390BC901909381016F
:10024000809380018091800190918101803191059E
:100250006CF0809160008C3E48F080916000845189
:10026000809360008FEF8093610018C080918001BF
:1002700090918101813F3FEF93076CF48091610081
:100280008C3E48F08FEF8093600080916100845134
:100290008093610003C088EC90E0A2D2809160005E
:1002A000882F90E0BDD28AEC90E09AD280916100D4
:1002B000882F90E0B5D28AEC90E092D280918001B4
:1002C00090918101ADD28CEC90E08AD2DF91CF91F8
:1002D0001F910F910895CF93DF93CDB7DEB781E3E0
:1002E00090E021E330E0F90120812063FC012083CC
:1002F00087E390E027E330E0F90120812063FC01EF
:10030000208387E390E027E330E0F9012081266035
:10031000FC01208382E390E022E330E0F9012081B8
:100320002063FC01208388E390E028E330E0F901BA
:1003300020812063FC0120838FE490E02FE430E0F3
:10034000F9012081216AFC0120838EE490E02EE4F3
:1003500030E0F90120812260FC0120838FEC90E0E5
:100360003FD2DF91CF910895CF93DF9300D0CDB7E7
:10037000DEB789836A838981813099F482E390E0D2
:1003800022E330E0F90120812062FC01208382E336
:1003900090E022E330E0F90120812F7EFC012083F0
:1003A0001FC08981823099F482E390E022E330E03B
:1003B000F90120812F7DFC01208382E390E022E37C
:1003C00030E0F90120812061FC01208309C082E333
:1003D00090E022E330E0F90120812063FC012083DA
:1003E0008A81813099F488E390E028E330E0F901D4
:1003F00020812062FC01208388E390E028E330E044
:10040000F90120812F7EFC0120831FC08A81823068
:1004100099F488E390E028E330E0F90120812F7D12
:10042000FC01208388E390E028E330E0F90120819B
:100430002061FC01208309C088E390E028E330E0DC
:10044000F90120812063FC0120830F900F90DF9140
:10045000CF910895CF93DF93CDB7DEB781E390E0DE
:1004600021E330E0F90120812068FC01208381E351
:1004700090E021E330E0F90120812460FC01208339
:1004800087E390E027E330E0F90120812160FC015F
:10049000208381E390E021E330E0F90120812064B2
:1004A000FC01208384EE90E09BD1DF91CF910895F1
:1004B000CF93DF931F92CDB7DEB7898389818130D7
:1004C00099F488E390E028E330E0F901208121608D
:1004D000FC01208382E390E022E330E0F9012081F7
:1004E0002B7FFC0120832FC08981823099F488E31F
:1004F00090E028E330E0F90120812E7FFC01208389
:1005000082E390E022E330E0F90120812460FC01E5
:10051000208319C08981833099F488E390E028E32F
:1005200030E0F90120812160FC01208382E390E02A
:1005300022E330E0F90120812460FC01208303C024
:1005400087EF90E04DD10F90DF91CF910895CF9339
:10055000DF931F92CDB7DEB789838981813051F453
:1005600082E390E022E330E0F90120812064FC0185
:10057000208310C08981882351F482E390E022E334
:1005800030E0F90120812F7BFC01208303C088E14A
:1005900091E026D10F90DF91CF910895CF93DF9313
:1005A000CDB7DEB784E390E024E330E0F9012081A9
:1005B0002F7EFC01208384E390E024E330E0F90106
:1005C0002081277FFC01208385E590E025E530E050
:1005D000F90120812860FC01208385E590E025E574
:1005E00030E0F90120812B7FFC0120838BE590E036
:1005F0002BE530E0F90120812068FC01208387E3AE
:1006000091E0EED08BE491E0EBD0DF91CF910895B3
:10061000CF93DF93CDB7DEB787E290E027E230E0FB
:10062000F90120812E7FFC01208387E290E027E200
:1006300030E0F90120812D7FFC01208387E290E0EA
:1006400027E230E0F90120812460FC01208387E269
:1006500090E027E230E0F9012081277FFC01208330
:1006600086E290E026E230E0F90120812064FC017E
:100670002083000084E290E0FC0180819181DF9181
:10068000CF9108951F920F9200905F000F92112456
:100690002F933F934F935F936F937F938F939F938A
:1006A000AF93BF93EF93FF93CF93DF9300D0CDB77A
:1006B000DEB71A821982ACDF9A8389838EE491E0D7
:1006C0008FD089819A81ACD08BE491E089D00F9052
:1006D0000F90DF91CF91FF91EF91BF91AF919F91DB
:1006E0008F917F916F915F914F913F912F910F90DB
:1006F00000925F000F901F901895CF93DF93CDB7B6
:10070000DEB783E590E023E530E0F9012081256044
:10071000FC01208389E590E029E530E0F9012081A2
:100720002160FC01208386E591E05AD0DF91CF91D2
:1007300008951F920F9200905F000F921124CF93A3
:10074000DF93CDB7DEB7DF91CF910F9000925F00BE
:100750000F901F901895CF93DF931F92CDB7DEB700
:100760008FEC898380E490E02981222F30E0232FD1
:10077000330F330BFC01208389E290E02981FC01D7
:1007800020838AE290E02AE230E0F90120812860AB
:10079000FC01208380E490E026E8FC0120838BE6C6
:1007A00091E01ED00F90DF91CF910895CF93DF930A
:1007B0001F92CDB7DEB7898300008BE290E0FC0189
:1007C0008081882F90E0807299270097B1F38CE2A6
:1007D00090E02981FC0120830F90DF91CF91089553
:1007E000CF93DF9300D0CDB7DEB79A838983898119
:1007F0009A81FC018081DADF89819A81FC01808104
:1008000021E0882309F420E089819A8101969A8366
:100810008983222361F70F900F90DF91CF91089584
:10082000CF93DF93CDB7DEB728970FB6F894DEBF2E
:100830000FBECDBF98878F838F8198854AE050E0A7
:100840009E012F5F3F4FB9010CD0CE010196C8DF4A
:1008500028960FB6F894DEBF0FBECDBFDF91CF91C3
:100860000895FB019F01E8944230BCF04532ACF49E
:100870004A3029F497FB1EF4909581959F4F642F81
:1008800077271ED0805D8A330CF0895D8193CB0180
:100890000097A9F716F45DE251931082C90100C0D8
:1008A000DC01FC01672F71917723E1F7329704C0D7
:1008B0007C916D9370836291AE17BF07C8F3089562
:1008C000AA1BBB1B51E107C0AA1FBB1FA617B70776
:1008D00010F0A61BB70B881F991F5A95A9F7809592
:0C08E0009095BC01CD010895F894FFCF65
:1008EC00FFFF41444320696E697420646F6E652E6E
:1008FC002E2E0D0A00616C6C20696E697473206475
:10090C006F6E652E2E2E0D0A006C696E6520696E59
:10091C00697420646F6E652E2E2E000D0A006B65B7
:10092C00696E2067FC6C74696765722041444320D2
:10093C004B616E616C20696E206765745F6C696ECB
:10094C00655F61646328290030003B000D0A006D6F
:10095C006F746F7220696E697420646F6E652E2ED1
:10096C002E0D0A006C656420696E697420646F6ECC
:10097C00652E2E2E0D0A0066616C7363686520452A
:10098C00696E676162652062656920737461747554
:10099C00735F6C656428290066616C7363686520FD
:1009AC0045696E6761626520626569206C696E6578
:1009BC005F6C656428290073776974636820696EBD
:1009CC00697420646F6E652E2E2E000D0A007377ED
:1009DC00697463683A0074696D657220696E697434
:1009EC0020646F6E652E2E2E0D0A007561727420B8
:1009FC00696E697420646F6E652E2E2E0D0A0000D0
:00000001FF
