S00D0000417375726F2E737265630D
S113000012C02CC0AAC32AC029C028C027C026C039
S113001025C0FAC323C022C021C020C01FC01EC0F7
S11300201DC01CC01BC011241FBECFE5D4E0DEBF21
S1130030CDBF11E0A0E6B0E0E8EEF9E002C0059023
S11300400D92AC39B107D9F721E0ACE9B1E001C0B8
S11300501D92AD39B207E1F736D0C4C4D1CFCF93E6
S1130060DF93CDB7DEB787E290E027E230E0F90115
S113007020812064FC01208386E290E026E230E0C7
S1130080F90120812068FC01208386E290E026E2C9
S113009030E0F90120812560FC01208386E290E0B4
S11300A026E230E0F90120812064FC012083000075
S11300B084E290E0FC018081918180E690E0FBD3B2
S11300C0DF91CF910895CF93DF93CDB7DEB7AED351
S11300D02CD26CD1C4DF7CD315D0CBD283E053D2E5
S11300E081E0A0D283E790E0E6D3789461E081E0F8
S11300F0A6D1BFD081E047D299D0FDD387E890E064
S1130100DAD3FACFCF93DF93CDB7DEB784E390E0B1
S113011024E330E0F9012081277FFC01208384E37C
S113012090E024E330E0F90120812B7FFC0120835F
S11301308AE890E0C0D38CE990E0BDD3DF91CF9101
S11301400895CF93DF9300D0CDB7DEB78A831982A9
S113015003C089818F5F898389818F3FD1F78A8129
S1130160882329F587E290E027E230E0F901208135
S11301702160FC01208387E290E027E230E0F9016E
S113018020812260FC01208387E290E027E230E0B6
S1130190F90120812B7FFC01208387E290E027E294
S11301A030E0F9012081277FFC0120832BC08A8164
S11301B0813029F587E290E027E230E0F9012081DF
S11301C02E7FFC01208387E290E027E230E0F901F2
S11301D020812260FC01208387E290E027E230E066
S11301E0F90120812B7FFC01208387E290E027E244
S11301F030E0F9012081277FFC01208303C08FE9CF
S113020090E059D386E290E026E230E0F9012081C3
S11302102064FC012083000084E290E0FC018081E2
S113022091810F900F90DF91CF9108950F931F93B9
S1130230CF93DF9300D0CDB7DEB780E082DF8C01AF
S113024081E07FDF9801281B390B80919C0199275D
S113025087FD9095A901481B590BCA019A8389838C
S113026089819A810F900F90DF91CF911F910F9107
S11302700895EF92FF920F931F93CF93DF93CDB71F
S1130280DEB76B970FB6F894DEBF0FBECDBF1982F1
S11302901B821A8280E055DF8C0181E052DF9801D5
S11302A0281B390BC9019B8F8A8F198252C08981FF
S11302B0082F10E080E045DF7C0181E042DFF70198
S11302C0E81BF90BCF019C01C801880F991FAE01EF
S11302D04F5F5F4F840F951F0396FC01318320838A
S11302E08981882F90E0880F991F9E012F5F3F4FCF
S11302F0820F931F0396FC01808191812A813B81A7
S1130300820F931F9B838A8389EC90E0D4D28981E6
S1130310882F90E0F0D28FEC90E0CDD28981882FA5
S113032090E0880F991F9E012F5F3F4F820F931F0C
S11303300396FC0180819181DED282ED90E0BBD2F4
S11303408A819B81D8D28CE990E0B5D289818F5F74
S1130350898389818A3008F4AACF8A819B812AE023
S113036030E0B901E9D29B01C90180939C018AED77
S113037090E0A1D28A819B81BED28CE990E09BD28D
S113038083EE90E098D280919C01992787FD909507
S1130390B2D26B960FB6F894DEBF0FBECDBFDF911D
S11303A0CF911F910F91FF90EF900895CF93DF931A
S11303B0CDB7DEB781E390E021E330E0F90120819D
S11303C02063FC01208387E390E027E330E0F90118
S11303D020812063FC01208387E390E027E330E061
S11303E0F90120812660FC01208382E390E022E36E
S11303F030E0F90120812063FC01208388E390E050
S113040028E330E0F90120812063FC0120838FE49C
S113041090E02FE430E0F9012081216AFC0120837F
S11304208EE490E02EE430E0F90120812260FC01AA
S113043020838CEE90E03FD2DF91CF910895CF934B
S1130440DF9300D0CDB7DEB789836A838981813099
S113045099F482E390E022E330E0F9012081206204
S1130460FC01208382E390E022E330E0F901208163
S11304702F7EFC0120831FC08981823099F482E39E
S113048090E022E330E0F90120812F7DFC012083FC
S113049082E390E022E330E0F90120812061FC0155
S11304A0208309C082E390E022E330E0F901208157
S11304B02063FC0120838A81813099F488E390E0F1
S11304C028E330E0F90120812062FC01208388E3E5
S11304D090E028E330E0F90120812F7EFC012083A5
S11304E01FC08A81823099F488E390E028E330E0E9
S11304F0F90120812F7DFC01208388E390E028E32B
S113050030E0F90120812061FC01208309C088E3E7
S113051090E028E330E0F90120812063FC0120838E
S11305200F900F90DF91CF910895CF93DF93CDB7C4
S1130530DEB781E390E021E330E0F9012081206817
S1130540FC01208381E390E021E330E0F901208184
S11305502460FC01208387E390E027E330E0F90185
S113056020812160FC01208381E390E021E330E0DD
S1130570F90120812064FC01208381E091E09BD17A
S1130580DF91CF910895CF93DF931F92CDB7DEB75C
S113059089838981813099F488E390E028E330E00D
S11305A0F90120812160FC01208382E390E022E3B1
S11305B030E0F90120812B7FFC0120832FC0898149
S11305C0823099F488E390E028E330E0F901208157
S11305D02E7FFC01208382E390E022E330E0F901E6
S11305E020812460FC01208319C08981833099F41F
S11305F088E390E028E330E0F90120812160FC01E8
S1130600208382E390E022E330E0F901208124603A
S1130610FC01208303C084E191E04DD10F90DF9170
S1130620CF910895CF93DF931F92CDB7DEB789831F
S11306308981813051F482E390E022E330E0F901D2
S113064020812064FC01208310C08981882351F417
S113065082E390E022E330E0F90120812F7BFC016A
S1130660208303C085E391E026D10F90DF91CF91E1
S11306700895CF93DF93CDB7DEB784E390E024E30E
S113068030E0F90120812F7EFC01208384E390E097
S113069024E330E0F9012081277FFC01208385E5F4
S11306A090E025E530E0F90120812860FC012083F9
S11306B085E590E025E530E0F90120812B7FFC0100
S11306C020838BE590E02BE530E0F9012081206860
S11306D0FC01208384E591E0EED088E691E0EBD044
S11306E0DF91CF910895CF93DF93CDB7DEB787E243
S11306F090E027E230E0F90120812E7FFC01208385
S113070087E290E027E230E0F90120812D7FFC01AF
S1130710208387E290E027E230E0F9012081246021
S1130720FC01208387E290E027E230E0F901208198
S1130730277FFC01208386E290E026E230E0F90185
S113074020812064FC012083000084E290E0FC010D
S113075080819181DF91CF9108951F920F92009033
S11307605F000F9211242F933F934F935F936F93E6
S11307707F938F939F93AF93BF93EF93FF93CF9305
S1130780DF9300D0CDB7DEB71A821982ACDF9A832B
S113079089838BE691E08FD089819A81ACD088E6F9
S11307A091E089D00F900F90DF91CF91FF91EF915D
S11307B0BF91AF919F918F917F916F915F914F9175
S11307C03F912F910F9000925F000F901F9018950A
S11307D0CF93DF93CDB7DEB783E590E023E530E038
S11307E0F90120812560FC01208389E590E029E559
S11307F030E0F90120812160FC01208383E791E04E
S11308005AD0DF91CF9108951F920F9200905F000C
S11308100F921124CF93DF93CDB7DEB7DF91CF9141
S11308200F9000925F000F901F901895CF93DF9365
S11308301F92CDB7DEB78FEC898380E490E02981E5
S1130840222F30E0232F330F330BFC01208389E266
S113085090E02981FC0120838AE290E02AE230E0E2
S1130860F90120812860FC01208380E490E026E8DF
S1130870FC01208388E891E01ED00F90DF91CF9196
S11308800895CF93DF931F92CDB7DEB7898300001D
S11308908BE290E0FC018081882F90E080729927A0
S11308A00097B1F38CE290E02981FC0120830F9042
S11308B0DF91CF910895CF93DF9300D0CDB7DEB70A
S11308C09A83898389819A81FC018081DADF898115
S11308D09A81FC01808121E0882309F420E0898148
S11308E09A8101969A838983222361F70F900F904E
S11308F0DF91CF910895CF93DF93CDB7DEB72897DB
S11309000FB6F894DEBF0FBECDBF98878F838F815B
S113091098854AE050E09E012F5F3F4FB90133D0E4
S1130920CE010196C8DF28960FB6F894DEBF0FBE3D
S1130930CDBFDF91CF91089597FB072E16F4009455
S113094006D077FD08D00BD007FC05D03EF4909577
S113095081959F4F0895709561957F4F0895AA1BC7
S1130960BB1B51E107C0AA1FBB1FA617B70710F096
S1130970A61BB70B881F991F5A95A9F780959095C8
S1130980BC01CD010895FB019F01E8944230BCF005
S11309904532ACF44A3029F497FB1EF490958195C6
S11309A09F4F642F7727DBDF805D8A330CF0895DEE
S11309B08193CB010097A9F716F45DE2519310825D
S11309C0C90100C0DC01FC01672F71917723E1F7B5
S11309D0329704C07C916D9370836291AE17BF0708
S10B09E0C8F30895F894FFCF59
S11309E841444320696E697420646F6E652E2E2E0F
S11309F80D0A00616C6C20696E69747320646F6EF3
S1130A08652E2E2E0D0A000D0A006C696E6520698C
S1130A186E697420646F6E652E2E2E000D0A006BAD
S1130A2865696E2067FC6C7469676572204144438C
S1130A38204B616E616C20696E206765745F6C6918
S1130A486E655F6164632829005765727420003AF3
S1130A5820002020203B2020200053756D6D652048
S1130A683A200046616B746F723A20006D6F746FA0
S1130A787220696E697420646F6E652E2E2E0D0ABD
S1130A88006C656420696E697420646F6E652E2E2F
S1130A982E0D0A0066616C736368652045696E678C
S1130AA861626520626569207374617475735F6C33
S1130AB8656428290066616C736368652045696EFE
S1130AC86761626520626569206C696E655F6C6543
S1130AD86428290073776974636820696E697420CF
S1130AE8646F6E652E2E2E000D0A00737769746389
S1130AF8683A0074696D657220696E697420646F60
S1130B086E652E2E2E0D0A007561727420696E6949
S10F0B187420646F6E652E2E2E0D0A00F2
S9030000FC
