:1000000012C02CC02BC02AC029C028C027C026C0BF
:1000100025C001C223C022C021C020C01FC01EC0F5
:100020001DC01CC01BC011241FBECFE5D4E0DEBF25
:10003000CDBF11E0A0E6B0E0E0EDF5E002C0059034
:100040000D92A236B107D9F721E0A2E6B1E001C0D6
:100050001D92A236B207E1F702D0B8C2D1CFCF933A
:10006000DF93CDB7DEB7E9D116D1A7D0EFD0B7D1A6
:1000700019D081E03ED181E08BD180E690E022D2A0
:10008000789480E02ED0882F90E03CD284E790E0F6
:1000900019D281E026D0882F90E034D286E790E014
:1000A00011D2EFCFCF93DF93CDB7DEB784E390E0EB
:1000B00024E330E0F9012081277FFC01208384E3E1
:1000C00090E024E330E0F90120812B7FFC012083C4
:1000D00089E790E0F7D18BE890E0F4D1DF91CF9100
:1000E0000895CF93DF931F92CDB7DEB789838981BF
:1000F000882329F587E290E027E230E0F9012081AA
:100100002160FC01208387E290E027E230E0F901E2
:1001100020812260FC01208387E290E027E230E02A
:10012000F90120812B7FFC01208387E290E027E208
:1001300030E0F9012081277FFC0120832BC08981D9
:10014000813029F587E290E027E230E0F901208153
:100150002E7FFC01208387E290E027E230E0F90166
:1001600020812260FC01208387E290E027E230E0DA
:10017000F90120812B7FFC01208387E290E027E2B8
:1001800030E0F9012081277FFC01208303C08EE845
:1001900090E098D186E290E026E230E0F9012081FB
:1001A0002064FC012083000084E290E0FC01808157
:1001B00091810F90DF91CF910895CF93DF93CDB7C9
:1001C000DEB781E390E021E330E0F9012081206394
:1001D000FC01208387E390E027E330E0F9012081F0
:1001E0002063FC01208387E390E027E330E0F901FE
:1001F00020812660FC01208382E390E022E330E04E
:10020000F90120812063FC01208388E390E028E34A
:1002100030E0F90120812063FC0120838FE490E02D
:100220002FE430E0F9012081216AFC0120838EE473
:1002300090E02EE430E0F90120812260FC0120836F
:1002400088EB90E03FD1DF91CF910895CF93DF937A
:10025000CDB7DEB787E290E027E230E0F9012081F8
:100260002064FC01208386E290E026E230E0F90180
:1002700020812068FC01208386E290E026E230E0C5
:10028000F90120812560FC0120838DEC90E01AD1DA
:10029000DF91CF910895CF93DF93CDB7DEB781E3A0
:1002A00090E021E330E0F90120812068FC01208307
:1002B00081E390E021E330E0F90120812460FC013A
:1002C000208387E390E027E330E0F901208121607B
:1002D000FC01208381E390E021E330E0F9012081FB
:1002E0002064FC01208386EE90E0ECD0DF91CF917A
:1002F0000895CF93DF931F92CDB7DEB789838981AD
:10030000813099F488E390E028E330E0F90120811E
:100310002160FC01208382E390E022E330E0F901D8
:1003200020812B7FFC0120832FC08981823099F4AA
:1003300088E390E028E330E0F90120812E7FFC0182
:10034000208382E390E022E330E0F9012081246001
:10035000FC01208319C08981833099F488E390E0FF
:1003600028E330E0F90120812160FC01208382E351
:1003700090E022E330E0F90120812460FC01208339
:1003800003C089EF90E09ED00F90DF91CF91089548
:10039000CF93DF931F92CDB7DEB7898389818130F8
:1003A00051F482E390E022E330E0F90120812064FF
:1003B000FC01208310C08981882351F482E390E0FE
:1003C00022E330E0F90120812F7BFC01208303C070
:1003D0008AE191E077D00F90DF91CF910895CF938C
:1003E000DF93CDB7DEB783E590E023E530E0F90198
:1003F00020812560FC01208389E590E029E530E03B
:10040000F90120812160FC01208389E391E05AD029
:10041000DF91CF9108951F920F9200905F000F928D
:100420001124CF93DF93CDB7DEB7DF91CF910F903B
:1004300000925F000F901F901895CF93DF931F924B
:10044000CDB7DEB78FEC898380E490E02981222F3D
:1004500030E0232F330F330BFC01208389E290E03F
:100460002981FC0120838AE290E02AE230E0F90150
:1004700020812860FC01208380E490E026E8FC01D4
:1004800020838EE491E01ED00F90DF91CF910895EC
:10049000CF93DF931F92CDB7DEB7898300008BE245
:1004A00090E0FC018081882F90E08072992700976E
:1004B000B1F38CE290E02981FC0120830F90DF9161
:1004C000CF910895CF93DF9300D0CDB7DEB79A8355
:1004D000898389819A81FC018081DADF89819A810F
:1004E000FC01808121E0882309F420E089819A8140
:1004F00001969A838983222361F70F900F90DF91F1
:10050000CF910895CF93DF93CDB7DEB728970FB67D
:10051000F894DEBF0FBECDBF98878F838F819885FB
:100520004AE050E09E012F5F3F4FB9010CD0CE0151
:100530000196C8DF28960FB6F894DEBF0FBECDBF78
:10054000DF91CF910895FB019F01E8944230BCF008
:100550004532ACF44A3029F497FB1EF4909581950E
:100560009F4F642F77271ED0805D8A330CF0895D02
:100570008193CB010097A9F716F45DE251931082A5
:10058000C90100C0DC01FC01672F71917723E1F7FD
:10059000329704C07C916D9370836291AE17BF0750
:1005A000C8F30895AA1BBB1B51E107C0AA1FBB1FBC
:1005B000A617B70710F0A61BB70B881F991F5A95EF
:1005C000A9F780959095BC01CD010895F894FFCFCF
:1005D000616C6C20696E69747320646F6E652E2E79
:1005E0002E0D0A003B000D0A006C696E6520696ED5
:1005F000697420646F6E652E2E2E000D0A006B65E7
:10060000696E2067FC6C7469676572204144432001
:100610004B616E616C20696E206765745F6C696EFA
:10062000655F6164632829006D6F746F7220696E65
:10063000697420646F6E652E2E2E0D0A006F646F34
:100640006D657472696520696E697420646F6E658A
:100650002E2E2E0D0A006C656420696E697420646C
:100660006F6E652E2E2E0D0A0066616C73636865D1
:100670002045696E676162652062656920737461F7
:100680007475735F6C656428290066616C736368B8
:10069000652045696E6761626520626569206C69E5
:1006A0006E655F6C656428290074696D65722069E8
:1006B0006E697420646F6E652E2E2E0D0A007561B2
:1006C000727420696E697420646F6E652E2E2E0D13
:0206D0000A001E
:00000001FF
